:1000000000200010430000004100000041000000FB
:1000100041000000410000004100000041000000DC
:1000200041000000410000004100000041000000CC
:1000300041000000410000004100000041000000BC
:10004000FEE70B480B490C4A091A05D013780370D8
:10005000013201300139F9DC08480949091A04D094
:100060005B40037001300139FBDC00F0DBFAFEE796
:100070000000001030040010B01300003004001025
:1000800030040010E0170000704700F0EFBF0000E0
:100090002DE9F0412C488EB000F0D6F800284CD065
:1000A0000AAA1746294B03F1100514461868596827
:1000B000083303C4AB422246F7D16846012100F061
:1000C000B7FA012806463BD19DF8005015B1012D25
:1000D00014D0F2E70EAC4FF0100804F8318D204632
:1000E000314600F0FDFA204631468DF8078000F0D9
:1000F000F7FA8DF80750204631461BE006A810217C
:1001000000F096FA10280446D7D101A8002100F08B
:100110008FFA06460028D0D1294600F059F802A8E7
:1001200006A93A4600F0A2FF3046314600F050F8EA
:10013000214602A800F0D4FABFE74FF0FF3000E0FC
:1001400000200EB0BDE8F081000000108E1200000B
:10015000054B9B785843032390FBF3F0002801DD07
:100160000138FDD1704700BF3004001038B5054696
:100170000024AC4205DA4FF47A70FFF7E9FF01344E
:10018000F7E738BD024B00211B689869704700BF34
:100190002804001001280CD003D3022811D10A4BE7
:1001A00008E00A4B1A6843F6FC73D05800F00100CF
:1001B0007047064B1A6843F6FC73D058C0F34000F2
:1001C00070470020704700BF0C040010100400109E
:1001D000012811D002D3022812D07047104A43F6EA
:1001E000FC7321B11168CA5842F0010215E0116890
:1001F000CA5822F0010210E0094A43F6FC7302E0FB
:1002000043F6FC73074A21B11168CA5842F0020252
:1002100003E01168CA5822F00202CA50704700BFBA
:10022000100400100C040010024B1B68586900F009
:10023000010070471C040010024B1B685869C0F392
:10024000401070471C0400102DE9F84F984C0368CB
:1002500001212360974B05461B681020D3F88020AE
:1002600094F8008042F48032C3F88020924A884596
:1002700012689167D167106140F20120C2F8A410A2
:10028000C2F8A81010635063D3F8802042F0200217
:10029000C3F88020D3F8802042F04002C3F88020C9
:1002A000D3F8802042F48052C3F880205A6822F0AC
:1002B00002025A605A6842F002025A6006D007D31E
:1002C000B8F1020F40F0F080894604E0414600E0BA
:1002D00000214FF003096678A778B6464FF0000B6F
:1002E0000BF1010A0120BEFBF0FC00FB1CE20AB985
:1002F000BC450DD00130B0F5807FF4D1BAF1200FAC
:10030000B644D346ECD1CFE00132042A00F0CC80D1
:100310004FF0020A0AFA02FC0EFB0CFCACF19C0C3A
:10032000BCF1A40FF0D806F1FF3EBEF1130F4BEA6B
:10033000421202D800261E6204E00F3E0A2E98BF29
:10034000C3F820A0D3F83862B8F1000F02D146F00C
:10035000200601E026F02006C3F83862C82600BF58
:10036000013EFCD11964596C41F001015964596C8A
:1003700021F001015964596C41F001015964596C33
:10038000CE07FCD59A60D3F8382222F08002C3F859
:100390003822DA68D107FCD5C3F870905A6F42F062
:1003A00001025A675A6F22F001025A675A6F42F0EF
:1003B00001025A675A6FD207FCD5142F986703D8E9
:1003C0003E4A002112680AE0282F03D83B4A012147
:1003D000126804E0322F03D8384A022112681161F2
:1003E000374A126802F50041086840F001000860D1
:1003F000086840F0020008603249096801F50041D0
:10040000086820F00200086043F6FC71505820F0A4
:1004100001005050505820F0020050502A4AC3F8B2
:10042000987016461368D96841F08001D96005219B
:100430009962996A41F08001996200215960042112
:100440001960D96821F08001D960D96841F00301B1
:10045000D960D96821F00801D960D96821F0040178
:10046000D960FFF7E1FE10B133681B68F9E7FFF7C9
:10047000E3FE06460028FAD0144AA378126803EB7C
:1004800083035361136140231360114B6FF07F426C
:100490001B685A619A61EA780AB1052200E00422D9
:1004A0001A6100F0BBF800E000263046BDE8F88F86
:1004B000300400100404001008040010240400108C
:1004C000100400100C0400101C0400102004001084
:1004D0002804001008B510B9FFF7A6FEFBE7024B91
:1004E0001B681868C0B208BD1C04001010B50C468B
:1004F00018B1034B1B681C6010BDFFF79DFEF7E7AA
:100500001C04001070B53B4E2025346841EA4001C0
:1005100025603468656805F0F805282D2FD00AD8C5
:10052000102D23D003D8DDB1082D1FD0F2E7182DF0
:100530001FD0202D0DE0402D38D005D8302D2CD0E7
:10054000382DE7D124202EE0502D3AD0582D47D019
:10055000482DDFD1142323602823A361022070BD1E
:10056000142323602823A361012070BDA16004200F
:1005700019E053B9142222602822A26138E0013B1D
:1005800003D114222260A56132E010780132A0600C
:10059000042020603820A061BBE7142323602823B7
:1005A000A361032070BD2060182008E0012B05D94D
:1005B00004202060306838248461AAE73C20A061D0
:1005C000A7E7A068013B1070012B02F1010532681A
:1005D00085BF042010603C20382090612A4698E7AF
:1005E0000BB1A3681370336814221A6028229A6131
:1005F000002070BD2004001010B50C4613460121E8
:100600002246BDE81040FFF77DBF10B50C461346EB
:1006100000212246BDE81040FFF774BF62B6704764
:1006200072B6704740404940FFF732FD7047000006
:1006300070B5044600200E46FFF74CFF00F0C2FDE7
:100640000001C5B20020FFF745FF00F0BBFD00F040
:100650000F000543B54202DD4FF0FF3070BD0020B2
:10066000FFF738FF3A28F7D16619B4422ED00020A0
:1006700004F8010BFFF72EFF0D2803460FD0174A91
:10068000126813445B7813F0440F1FD000F09AFDFA
:1006900014F8013CC0B243EA001004F8010C002039
:1006A000FFF718FF0D280346DFD00C4A12681344E9
:1006B0005B7813F0440F09D000F084FD14F8013C7E
:1006C00000F00F00184304F8010CCEE70020FFF7FC
:1006D00001FF0D28FAD1284670BD00BF2C04001080
:1006E000F8B50646C1F303100D4600F080FD014643
:1006F0000020FFF7FBFE05F00F0000F078FD01463B
:100700000020FFF7F3FE00203A21FFF7EFFE34460A
:10071000A31BAB4213DA274614F8010B000900F0C3
:1007200066FD01460020FFF7E1FE387800F00F007B
:1007300000F05DFD01460020FFF7D8FEE8E700204D
:100740000D21BDE8F840FFF7D1BE00BF0B7802785D
:10075000534003704B784278534043708B788278D3
:1007600053408370CB78C2785340C3700B790279C1
:10077000534003714B794279534043718B798279AD
:1007800053408371CB79C2795340C3710B7A027A9B
:1007900053400372427A4B7A53404372827A8B7A87
:1007A00053408372C27ACB7A5340C3720B7B027B75
:1007B000534003734B7B427B53404373827B8B7B61
:1007C00053408373C27BCB7B5340C3737047194B39
:1007D00002789A5C027042789A5C427082789A5CE5
:1007E0008270C2789A5CC27002799A5C0271427916
:1007F0009A5C427182799A5C8271C2799A5CC27108
:10080000027A9A5C0272427A9A5C4272827A9A5CAA
:100810008272C27A9A5CC272027B9A5C0273427BD9
:100820009A5C4273827B9A5C8273C27B9B5CC373CB
:10083000704700BF040000104179427A437B10B535
:10084000447842714473827A84784170437281792A
:10085000837B84728173C478C17982708371C27A18
:10086000C37BC471C172C273C37010BD2DE9F04166
:10087000574B0278991891F8007141785C1894F8F8
:100880000081847881EA020E1D1995F800C1C578AF
:1008900062406A405E19614088EA020296F800618F
:1008A0008CEA02028EEA040469408EEA0505427071
:1008B0007940027967408CEA050C88EA010186EAF2
:1008C0000C0C7E400170C67080F802C0991891F837
:1008D000007141795C1894F80081847981EA020EF4
:1008E0001D1995F800C1C57962406A405E196140E2
:1008F00088EA020296F800618CEA02028EEA040499
:1009000069408EEA050542717940027A67408CEAB7
:10091000050C88EA010186EA0C0C7E400171C67163
:1009200080F806C0991891F80071417A5C1894F823
:100930000081847A81EA020E1D1995F800C1C57AFA
:100940006140624069406A405E19794088EA02026B
:1009500096F800618CEA02028EEA05058EEA04042C
:1009600088EA01010172674042728CEA050C027B41
:1009700086EA0C0C7E4080F80AC0C672991891F87D
:100980000061417B5C1894F800C1847B81EA020E0F
:100990001D1995F80071C57B62402B4461406A4087
:1009A00093F8003169408CEA02028EEA05058EEA6E
:1009B000040471407A4066406F405F408CEA010158
:1009C0007340017342738773C373BDE8F08100BF46
:1009D000040000100B780278534003704B78427883
:1009E000534043708B78827853408370CB78C278C1
:1009F0005340C3700B790279534003714B794279AC
:100A0000534043718B79827953408371CB79C2799A
:100A10005340C3710B7A027A53400372427A4B7A85
:100A200053404372827A8B7A53408372C27ACB7A74
:100A30005340C3720B7B027B534003734B7B427B5F
:100A400053404373827B8B7B53408373C27BCB7B4E
:100A50005340C3737047294B02781A4492F800221E
:100A6000027042781A4492F80022427082781A4446
:100A700092F800228270C2781A4492F80022C27062
:100A800002791A4492F80022027142791A4492F8CB
:100A90000022427182791A4492F800228271C2794E
:100AA0001A4492F80022C271027A1A4492F8002283
:100AB0000272427A1A4492F800224272827A1A44EE
:100AC00092F800228272C27A1A4492F80022C2720C
:100AD000027B1A4492F800220273427B1A4492F875
:100AE00000224273827B1A4492F800228273C27BF6
:100AF000134493F80032C373704700BF0400001022
:100B00004179427A437B10B54478417244718179CE
:100B1000847842734370827A837B84728173C47851
:100B2000C17982708371C27AC37BC170C473C27190
:100B3000C37210BD2DE9F04FD04B027887B09918E1
:100B400091F800110090019141785C1894F800A18F
:100B500084781D1995F800510295C5785E1996F8AC
:100B600000610396019E9E1996F800B103EB0A06F8
:100B700096F8007103EB0B0C029E9CF800019E1985
:100B800096F800E10490039E81EA02000590049823
:100B90009E1996F8006180EA0B0B6140019803EB07
:100BA000070C69409CF8009103EB0608414098F857
:100BB000008103EB0E0C8AEA01019CF800C189EA6E
:100BC000010188EA010100988CEA0E0E8BEA01010E
:100BD0008EEA0101624001706A4002998AEA0202CB
:100BE0004A40049989EA07074A408CEA020288EAE7
:100BF00006067A4072404270059A5540029A554066
:100C0000039A5540059A89EA05055440019A88EAF5
:100C100005085440039A8BEA080B5440049A8EEA64
:100C20000B0E54408CEA040C027987EA0C077E40D4
:100C3000C67080F802E0991891F80011019141798D
:100C40005C1894F800A184791D1995F800010290B0
:100C50000098C5795E1996F80001039001981E1856
:100C6000029896F800B103EB0A0696F800711E1878
:100C7000039896F800E103EB0B0C1E1896F8006140
:100C80009CF8000103EB070C9CF80091049003EB27
:100C90000E0C81EA020003EB06089CF800C198F8EC
:100CA000008105900498614080EA0B0B019869402F
:100CB00041408AEA010189EA010188EA01010098BC
:100CC0008CEA0E0E8BEA01018EEA0101624001718D
:100CD0006A4002998AEA02024A40049989EA0707AF
:100CE0004A408CEA020288EA06067A407240427163
:100CF000059A5540029A5540039A5540059A89EA4B
:100D000005055440019A88EA05085440039A8BEA85
:100D1000080B5440049A8EEA0B0E54408CEA040CE3
:100D2000027A87EA0C077E40C67180F806E09918BF
:100D300091F800110191417A5C1894F800A1847A2D
:100D40001D1995F8000102900098C57A5E1996F871
:100D50000001039001981E18029896F800B103EB69
:100D60000A0696F800711E1896F800E1039803EB46
:100D70000B0C1E189CF8000196F80061049081EAA3
:100D8000020005900498614080EA0B0B019803EB88
:100D9000070C69409CF8009103EB0608414098F865
:100DA000008103EB0E0C8AEA01019CF800C189EA7C
:100DB000010188EA010100988CEA0E0E8BEA01011C
:100DC0008EEA0101624001726A4002998AEA0202D7
:100DD0004A40049989EA07074A408CEA020288EAF5
:100DE00006067A4072404272059A5540029A554072
:100DF000039A5540059A89EA05055440019A88EA04
:100E000005085440039A8BEA080B5440049A8EEA72
:100E10000B0E54408CEA040C027B87EA0C077E40E0
:100E200080F80AE0C672991891F800110191417B8F
:100E30005C1894F800B1847B1D1995F800010290AC
:100E40000098C57B5E1996F80001039001981E1862
:100E5000029896F800C103EB0B0696F800711E1875
:100E6000039896F800E11E1881EA020096F80061E6
:100E700003EB0C0804906140019801E004000010AD
:100E800098F80091694003EB070898F800A14140E9
:100E900003EB0E08334493F800318BEA010198F814
:100EA00000818AEA010189EA0C0C5940009888EA1D
:100EB0000E0E8CEA01018EEA0101624001736A4064
:100EC00002998BEA02024A4089EA02028AEA07078B
:100ED00088EA02025E407A4072404273049A5540AA
:100EE000029A5540039A55408AEA050A83EA0A03A2
:100EF0008CEA030C049B8EEA0C0E5C40019B80F88C
:100F00000EE05C40544089EA040988EA090887EA4F
:100F100008077E40C67307B0BDE8F08F03462DE991
:100F2000F04329484C7B0E7810F80480564086EA3E
:100F300008061E708C7B0244055D4C7865405D7030
:100F4000CC7B10F804E08C788EEA04049C700F7B54
:100F500010F80790CF7889EA070983F8039091F891
:100F6000048092F8000186EA080883F8048091F86A
:100F700005C085EA0C0C83F805C091F806E084EA08
:100F80000E0E83F806E0CF7989EA0707DF710E7A43
:100F900088EA06061E724D7A8CEA05055D728C7A27
:100FA0008EEA04049C72CA7A7A40DA720F7B7E4021
:100FB0001E734E7B75405D738D7B6C409C73C97B4B
:100FC0004A40DA73BDE8F083040000100346F0B530
:100FD000C87ACF7B4740DF73887A8E7B46409E730A
:100FE000487A4D7B45405D73087A91F80CE08EEAB3
:100FF000000E83F80CE0CC7AC8796040D8728C7A05
:101000008879604098724C7A4879604058720C7ABE
:10101000087960401872CC79C8786040D8718C79B2
:101020008878604098714C794878604058710C79A4
:10103000087860400C4C1871224492F8000314F8B0
:101040000EE0CA788EEA0202DA708A78E75D7A40AA
:101050009A704A78A65D72405A700A7880EA020156
:10106000625D4A401A70F0BD040000102DE9F041A5
:1010700088B004AC06460B46254602F1100E274602
:1010800010685168083203C772453C46F7D16A467A
:101090006C4603F1100E174618685968083303C7E9
:1010A00073453A46F7D120462946FFF74FFB4FF0EC
:1010B000090801272046FFF78AFB2046FFF7BCFB03
:1010C0002046FFF7D3FB3A4629462846FFF726FF7E
:1010D000294607462046FFF739FBB8F10108E9D158
:1010E0002046FFF774FB2046FFF7A6FB29463A4649
:1010F0002846FFF713FF20462946FFF727FB334614
:10110000224603CAAA4218605960144603F1080334
:10111000F6D108B0BDE8F0812DE9F04188B004AC0B
:1011200006460B46254602F1100E27461068516808
:10113000083203C772453C46F7D16A466C4603F154
:10114000100E174618685968083303C773453A46A6
:10115000F7D129462046FFF73DFC2046FFF7D0FC9B
:101160002046FFF778FC4FF009086C273A462946DD
:101170002846FFF72BFF294607462046FFF72AFCA3
:101180002046FFF7D7FC2046FFF7BAFC2046FFF7C2
:1011900062FCB8F10108E9D129463A462846FFF732
:1011A00015FF20462946FFF715FC3346224603CAA1
:1011B000AA4218605960144603F10803F6D108B03A
:1011C000BDE8F081A0F13003DAB2092A01D818464F
:1011D0007047A0F16103052B01D857387047A0F183
:1011E0004103052B94BF37384FF0FF307047092873
:1011F00001D8303004E0A0F10A03052B02D83730C3
:10120000C0B270473F2070472DE9F0410746904635
:101210000D460446E31B434505F1020510DA15F8B7
:10122000020CFFF7CFFF0001C6B2267015F8010CC3
:10123000FFF7C8FF00F00F00064304F8016BE9E771
:10124000BDE8F0812DE9F843074688461446064676
:101250000D46C8EB0503A34206F1020610DAA946C3
:1012600015F8010B0009FFF7C2FF06F8020C99F808
:10127000000000F00F00FFF7BAFF06F8010CE8E7E6
:1012800024EAE474002307F81430BDE8F883D49608
:10129000E88F21405592ED1862A98C6835E6000070
:1012A0000020202020202020202028282828282036
:1012B000202020202020202020202020202020202E
:1012C0002088101010101010101010101010101096
:1012D0001004040404040404040404101010101086
:1012E0001010414141414141010101010101010150
:1012F00001010101010101010101010110101010A2
:101300001010424242424242020202020202020221
:101310000202020202020202020202021010101075
:10132000200000000000000000000000000000009D
:1013300000000000000000000000000000000000AD
:10134000000000000000000000000000000000009D
:10135000000000000000000000000000000000008D
:10136000000000000000000000000000000000007D
:10137000000000000000000000000000000000006D
:10138000000000000000000000000000000000005D
:10139000000000000000000000000000000000004D
:0413A0000000000049
:0C13A4000000000000000000000000003D
:1013B000000C0C01637C777BF26B6FC53001672BEF
:1013C000FED7AB76CA82C97DFA5947F0ADD4A2AF39
:1013D0009CA472C0B7FD9326363FF7CC34A5E5F147
:1013E00071D8311504C723C31896059A071280E2F5
:1013F000EB27B27509832C1A1B6E5AA0523BD6B349
:1014000029E32F8453D100ED20FCB15B6ACBBE39B8
:101410004A4C58CFD0EFAAFB434D338545F9027FA4
:10142000503C9FA851A3408F929D38F5BCB6DA215D
:1014300010FFF3D2CD0C13EC5F974417C4A77E3D89
:10144000645D197360814FDC222A908846EEB814DF
:10145000DE5E0BDBE0323A0A4906245CC2D3AC62A2
:101460009195E479E7C8376D8DD54EA96C56F4EAAD
:10147000657AAE08BA78252E1CA6B4C6E8DD741FBE
:101480004BBD8B8A703EB5664803F60E613557B981
:1014900086C11D9EE1F8981169D98E949B1E87E93B
:1014A000CE5528DF8CA1890DBFE6426841992D0FEA
:1014B000B054BB1600020406080A0C0E10121416D3
:1014C000181A1C1E20222426282A2C2E30323436AC
:1014D000383A3C3E40424446484A4C4E505254569C
:1014E000585A5C5E60626466686A6C6E707274768C
:1014F000787A7C7E80828486888A8C8E909294967C
:10150000989A9C9EA0A2A4A6A8AAACAEB0B2B4B66B
:10151000B8BABCBEC0C2C4C6C8CACCCED0D2D4D65B
:10152000D8DADCDEE0E2E4E6E8EAECEEF0F2F4F64B
:10153000F8FAFCFE1B191F1D131117150B090F0DCF
:10154000030107053B393F3D333137352B292F2D1B
:10155000232127255B595F5D535157554B494F4D0B
:10156000434147457B797F7D737177756B696F6DFB
:10157000636167659B999F9D939197958B898F8DEB
:1015800083818785BBB9BFBDB3B1B7B5ABA9AFADDB
:10159000A3A1A7A5DBD9DFDDD3D1D7D5CBC9CFCDCB
:1015A000C3C1C7C5FBF9FFFDF3F1F7F5EBE9EFEDBB
:1015B000E3E1E7E552096AD53036A538BF40A39E7E
:1015C00081F3D7FB7CE339829B2FFF87348E434422
:1015D000C4DEE9CB547B9432A6C2233DEE4C950B7E
:1015E00042FAC34E082EA16628D924B2765BA249DE
:1015F0006D8BD12572F8F66486689816D4A45CCCFD
:101600005D65B6926C704850FDEDB9DA5E154657CF
:10161000A78D9D8490D8AB008CBCD30AF7E4580505
:10162000B8B34506D02C1E8FCA3F0F02C1AFBD0311
:1016300001138A6B3A9111414F67DCEA97F2CFCEE2
:10164000F0B4E67396AC7422E7AD3585E2F937E87D
:101650001C75DF6E47F11A711D29C5896FB7620EBF
:10166000AA18BE1BFC563E4BC6D279209ADBC0FEA0
:1016700078CD5AF41FDDA8338807C731B11210594D
:101680002780EC5F60517FA919B54A0D2DE57A9F3F
:1016900093C99CEFA0E03B4DAE2AF5B0C8EBBB3C34
:1016A00083539961172B047EBA77D626E1691463B8
:1016B00055210C7D0000010102020303040405050D
:1016C00006060707080809090A0A0B0B0C0C0D800F
:1016D0000E0E0F821010111112121313141415157F
:1016E00016161717181819191A1A1B1B1C1C1D90EF
:1016F0001E1E1F922020212122222323242425255F
:1017000026262727282829292A2A2B2B2C2C2DA0CE
:101710002E2E2FA23030313132323333343435353E
:1017200036363737383839393A3A3B3B3C3C3DB0AE
:101730003E3E3FB24040414142424343444445451E
:1017400046464747484849494A4A4B4B4C4C4DC08E
:101750004E4E4FC2505051515252535354545555FE
:1017600056565757585859595A5A5B5B5C5C5DD06E
:101770005E5E5FD2606061616262636364646565DE
:1017800066666767686869696A6A6B6B6C6C6DE04E
:101790006E6E6FE2707071717272737374747575BE
:1017A00076767777787879797A7A7B7B7C7C7DF02E
:1017B0007E7E7FF200800440004004400000005024
:1017C0000000015000000250000003500080004063
:1017D0000000004000C0034000E000E0A012000054
:00000001FF
